:020000040800F2
:10000000B80700206D02000841260008E921000819
:100010003D26000851070008752800080000000070
:100020000000000000000000000000006926000839
:10003000610700080000000045260008AD26000802
:10004000870200088702000887020008870200086C
:10005000870200088702000887020008870200085C
:10006000870200088702000887020008870200084C
:10007000870200088702000887020008870200083C
:1000800087020008870200088702000800000000BD
:1000900000000000000000000000000087020008CF
:1000A000870200088702000887020008870200080C
:1000B00069270008870200088702000887020008F5
:1000C00087020008870200088702000887020008EC
:1000D000870200088702000887020008000000006D
:1000E000870200088702000887020008000000005D
:1000F000000000000000000000000000870200086F
:10010000000000008702000887020008870200083C
:1001100000000000000000000000000000000000DF
:1001200055070008870200088702000887020008B8
:10013000870200080000000000000000000000002E
:10014000000000000000000000000000870200081E
:10015000870200088702000887020008870200085B
:10016000870200088702000800000000000000006D
:10017000000000000000000000000000000000007F
:1001800000000000870200080000000000000000DE
:10019000870200088702000800F002F800F057F814
:1001A00014A696E8000CB244B344DA4501D100F03D
:1001B0004EF8BAE80F000FA696E83000A5EB04054C
:1001C00004EB0607AAEB0704A7F101074FEA151590
:1001D0004FEA3414A4F10104AC4201D300F037F823
:1001E00013F0010F18BFFB1A43F0010300F001F8F0
:1001F000DBE71847742A0000942A0000103A24BF55
:1002000078C878C1FAD8520724BF30C830C144BF7B
:1002100004680C6070470000704700000023002451
:1002200000250026103A28BF78C1FBD8520728BF06
:1002300030C148BF0B607047752900F0EB8000208B
:1002400070471FB502F0F2FC1FBD10B510BD00F0E5
:1002500044FA1146FFF7F5FF02F0ECFB00F062FAFA
:1002600003B4FFF7F2FF03BC00F06AFA09488047C5
:1002700009480047FEE7FEE7FEE7FEE7FEE7FEE788
:10028000FEE7FEE7FEE7FEE704480549054A064BA0
:10029000704700005527000899010008B8010020A8
:1002A000B8070020B8030020B803002053EA020C6E
:1002B00000F069802DE9F04B4FF00006002B1FBFC6
:1002C000B3FA83F503FA05F424FA05F65E4012BF8B
:1002D0001643B2FA82F502FA05F4C5F120051EBFF5
:1002E00022FA05FC44EA0C04203556EA044C4FEA95
:1002F000144418BF641C4FF000084FF000099042EE
:1003000071EB030C39D3002919BFB1FA81F701FA57
:1003100007F6B0FA80F700FA07F6C7F120071EBF0C
:1003200020FA07FC46EA0C062037B6FBF4FCA7EBE4
:100330000507103F07F01F0BCBF120062CFA06F63D
:100340000CFA0BFB44BFB3460026202FA4BF5E4629
:100350004FF0000B5BEA060C08BF4FF0010B19EBE6
:100360000B0948EB0608ABFB027C06FB02CC0BFB3F
:1003700003CCC01B71EB0C01C1E70B4602464146A2
:100380004846BDE8F08B13B5084318BF4FF0FF3067
:100390000146AFF30080BDE81C4070470FB41CB5A8
:1003A000074B06AA7B4469460090059800F07DF94A
:1003B0000020694600F08CF91CBC5DF814FB0000BD
:1003C0002903000070B5044685690068C10601D59F
:1003D000302600E02026C00707D070BDD4E90121F7
:1003E00030469047206A401C20626D1EF6D570BDD5
:1003F00070B5044685690078C00707D170BDD4E99F
:10040000012120209047206A401C20626D1EF6D5F5
:1004100070BD00002DE9F0410646002410687529E2
:10042000314616A510D0AFF30080002802DA404212
:1004300013A507E031688A0701D512A502E0490734
:1004400004D511A5012401E0AFF3008000210A22A8
:1004500006F1240709E0B0FBF2FCB0FBF2F302FB6B
:100460001C00303078541846491C0028F3D123462C
:100470002A463046BDE8F04100F0B9B8000000005F
:100480002D0000002B000000200000002DE9F047A7
:100490004FF0000A89460446C0F820A02046E168D3
:1004A0008847002876D0252806D0D4E90121904736
:1004B000206A401C2062F1E7E16820460025884759
:1004C000C4F81CA006460027C4F818A02A2E09D09C
:1004D000304602F0A4FB38B304EB8708303EC8F87E
:1004E000186019E059F8041B204604EB870291615B
:1004F000E1688847012F064618D1E069002820DA14
:1005000025F020051DE0D8F8180000EB800006EB70
:1005100040003038C8F818002046E1688847064691
:1005200002F07DFB0028EED1012F0AD02E2E08D13B
:100530002046E16888477F1C0646022F45F02005CB
:10054000C4DBA069002803DA404245F00105A06140
:10055000E80701D025F01005B6B1A6F14100192831
:1005600002D8203645F400654A46314620462560CB
:100570004D46FFF761FE58B1012806D0ED1D25F06C
:10058000070000F1080989E704E005F1040985E79F
:1005900030468AE7206ABDE8F0874FF0000200B5D8
:1005A000134694469646203922BFA0E80C50A0E896
:1005B0000C50B1F12001BFF4F7AF090728BFA0E844
:1005C0000C5048BF0CC05DF804EB890028BF40F810
:1005D000042B08BF704748BF20F8022B11F0804F52
:1005E00018BF00F8012B70477047704770472DE91E
:1005F000F0470D4699469246044600F124080168EA
:10060000880604D5E06921F01001216000E0012096
:10061000A84201DD471B00E00027A1697A1902EB1F
:100620000900081AA0612078C00602D42046FFF70E
:10063000C9FE002608E0D4E901211AF80600904717
:10064000206A401C761C20624E45F4DB2078C006F0
:100650000AD52046FFF7B6FE06E0D4E90121302096
:100660009047206A401C2062381EA7F10107F4DC85
:1006700007E0D4E9012118F805009047206A401CE2
:100680002062281EA5F10105F3DC2046FFF7B0FE2D
:100690002078000602D50220BDE8F0870120FBE7A4
:1006A00001694A1C02610878704700B58FB0CDE936
:1006B00001310021059105497944CDE90310114626
:1006C0006846FFF7E3FE0FB000BD0000E5FFFFFF47
:1006D0000A6802F8010B0A607047754600F02CF8B2
:1006E000AE4605006946534620F00700854618B01F
:1006F00020B5FFF7C9FDBDE820404FF000064FF0E0
:1007000000074FF000084FF0000BAC46ACE8C00902
:10071000ACE8C009ACE8C009ACE8C00921F00701A9
:100720008D46704710B50446AFF300802046BDE803
:100730001040FFF795BD00000048704710000020F2
:1007400001491820ABBEFEE72600020070470000FA
:10075000FEE7000040F2B800C2F2000000F0E8BA84
:100760007047000072B600BFFEE7000070B581B0B0
:100770000022009290F83C20012A03D1022001B00F
:1007800070BD00BFD1F800E00122BEF10A0F1FFAD0
:100790008EFC80F83C2009D34FEA4C02036812FA21
:1007A0008EF2A2F11E0403F10C0204E003680EEBCA
:1007B0004E0403F1100207251668A54026EA050538
:1007C00015608D68166805FA04F4344314604968AE
:1007D000062907D801EB81014A1F194651F8345FF9
:1007E0000FE000BF0C2901EB810105D8A1F1230224
:1007F000194651F8305F04E0A1F14102194651F861
:100800002C5F1F24944025EA04040C600CFA02F2C9
:100810000C6842F2043CC4F2010C2243ACF5417472
:10082000A3420A6006D0002180F83C10002001B0ED
:1008300070BD00BF1221BEF1110FC1F2000118BF3F
:100840008E453BD1DCF800208E4522F48002CCF8A6
:100850000020DCF8002042F40002CCF80020E2D1B5
:1008600040F20801C2F2000109684DF68362C4F249
:100870001B32A1FB0212910C01EB81014900009196
:1008800000990029CFD000BF00990139009100994B
:100890000029C8D000990139009100990029C2D0DF
:1008A00000990139009100990029BCD000990139C3
:1008B000009100990029E7D1B5E700BFBEF1120F02
:1008C000B1D1DCF8001021F40001CCF80010DCF804
:1008D000001041F48001CCF80010A4E70068C06C5F
:1008E00070470000002804BF0120704710B5016C5C
:1008F00000293DD0016CC90645D4016C41F20212B9
:100900009143023142F204320164C4F201021168DF
:1009100021F440311160136890E812102343D0F89D
:1009200010E013604A68012422F480724A604A6829
:10093000C0F6007442EA0E224A604A6822F0407211
:100940004A604A6842EA0C024A608A6822F40062FD
:100950008A60C2688B681A438A60826A8B68A24286
:1009600023F070638B608B6810D123F0405216E047
:10097000044600F065F820460021616484F83C10CC
:10098000016CC906B9D5012153E000BF1A438A6042
:100990008A6822F040528A60C26A8B681A438A6071
:1009A0008A6822F002028A608A68037E90F82040FA
:1009B00042EA43028A604A6884B142F400624A60B3
:1009C0004A684EF2000322F460424A60426ACFF65F
:1009D000FF734C6803EB4232224301E022F40062D1
:1009E0004A60CA6A40F2000C22F47002CA62C3690B
:1009F0004269CFF6F07CCC6A0CEB03532343CB6205
:100A00008B6823F400738B6090F830308C6844EA74
:100A100043238B608B6823F480638B608B6843EA8D
:100A200082228A6000214164026C012363F3010287
:100A30000264002280F83C20BDE810400846704760
:100A400070B586B0044642F200002168C4F201008D
:100A5000002681420596CDE903660296019601D0F3
:100A600006B070BD43F630010096C4F202014A6937
:100A700000F5604042F480724A614A6902F4807273
:100A80000092009A00960A6842F001020A60096822
:100A900001F0010100910099012101910321CDE9AB
:100AA000021601A900F0ECFA40F2B80546F2104037
:100AB000C2F20005C4F202004FF48061C5E90006ED
:100AC00005F110004FF400624FF400534EC0284669
:100AD000C5E90266C5E9086600F00CFA002818BFEF
:100AE000FFF740FEA563AC6306B070BD70B5044669
:100AF00000680D468268520544BF80685FEAC050B6
:100B000038D400F093FB21680A68920749D406465E
:100B1000681C3CD0DDB90868800721D508688007CB
:100B20003FD4086880071BD50868800739D4086857
:100B3000800715D50868800733D4086880070FD56B
:100B400008688007E7D52CE00868800729D400F002
:100B50006DFB801B2168A842F6D908688007F3D492
:100B6000206C40F004002064002084F83C00032046
:100B700070BD00BF206C40F020002064002084F88D
:100B80003C00012070BD00BF0868800709D40868D8
:100B9000800706D4086880075CBF08685FEA807039
:100BA000F2D56FF012000860206C40F400702064F1
:100BB000886810F0405F01D0002070BD207E0028C2
:100BC000FAD1C86A10F4700F02D088684005F3D4D7
:100BD000206C20F480702064206CC004ECD4206C65
:100BE00040F001002064002070BD000010B581B00D
:100BF0000021009190F83C10012903D1022001B09E
:100C000010BD00BF0468012180F83C10214651F856
:100C1000083FDB0729D10B684DF6836243F00103DF
:100C20000B6040F20803C2F200031B68C4F21B32DF
:100C3000A3FB02239A0C02EB42020092009AA2B19B
:100C4000009A013A0092009A7AB1009A013A009211
:100C5000009A52B1009A013A0092009A2AB1009A81
:100C6000013A0092009A002AEAD10A68036CD2077E
:100C70000CD143F01001016400F1440101200A6825
:100C800010430860002001B010BD00BF40F20172A7
:100C900023EA020202F5807202646268520504D5FA
:100CA000026C012363F30D320264026C4FF0000CFE
:100CB0000023D20444BF426C22F0060342F2000E2D
:100CC000436480F83CC06FF02200C4F2010E206043
:100CD000DEF80403C00609D074450BD1DEF8080025
:100CE00010F0405F06D14FF08040C8E7086810F070
:100CF000405FF8D0002001B010BD000090F83C101B
:100D0000012904BF0220704701688A6822F00102AD
:100D10008A608968C90705D1016C41F201129143CB
:100D200001310164002180F83C1000207047000070
:100D3000F0B581B00021009140F20801C2F200013B
:100D40000B68D0E9166148F2B51537680822C1F67C
:100D50004E358A403A42A3FB05350CD003681C6827
:100D6000640708D51C6824F004041C60B260426D5E
:100D700042F00102426501228A403A4208D00368EB
:100D80005B691B0604D5B260426D42F00202426507
:100D900004228A403A4208D003681B689B0704D5A6
:100DA000B260426D42F00402426510228A403A422B
:100DB00019D001680B681B0715D5B2600B680A686B
:100DC0005B0309D4D20509D40A6822F008020A603C
:100DD000016C29B907E000BF110341D4016C11B1C6
:100DE000044688472046C26D202101FA02F33B42A7
:100DF00043D001680F68FF063FD5B36090F83570A7
:100E00000B68052F1CD123F016030B604B6923F0F0
:100E100080034B61036C0BB9836C1BB10B6823F02F
:100E200008030B603F219140B160012180F835102B
:100E3000016D0022002980F8342054D158E000BF11
:100E40000A685B0310D4D20512D40A6822F010029B
:100E50000A60012180F83510002180F8341007E085
:100E6000816C0029BCD1BEE7110301D4416C00E0C4
:100E7000C16B11B1044688472046416DC1B3416D35
:100E8000C9072ED0052180F835100168AA0A0B6821
:100E900023F001030B60009B0133934200931AD8A7
:100EA0000B68DB0717D0009B01339342009312D8E5
:100EB0000B68DB070FD0009B0133934200930AD8E5
:100EC0000B68DB0707D0009B01339342009302D8E5
:100ED0000B68DB07DFD1012180F83510002180F895
:100EE0003410C16C21B101B0BDE8F040084700BF2B
:100EF00001B0F0BD2DE9F041044600F097F9ECB1E6
:100F00000546022084F835000020216884F834006A
:100F1000086820F00100086021680868C00711D047
:100F200000F084F9401B0528F6D90325202303206F
:100F3000636584F83550BDE8F08100BF0120BDE84D
:100F4000F08100BF086848F23F02CFF21002D4E9F6
:100F5000013500EA020C04F10C0898E8C10143EAEB
:100F60000C032B431843D4E9072E30433843104376
:100F7000626A40EA0E00042A40EA08031CD1206B92
:100F8000D4E90A2E40EA0E00184308604869BEF111
:100F9000000F20F0030040EA020040F0040C11D0E2
:100FA000B8F5005F36D0B8F1000F45D1022A46D01F
:100FB000012A3BD032B942E00B60486920F00700BB
:100FC00040EA020C01F0F8004AF6AB221038CAF6EB
:100FD000AA22A0FB02231A0942F65E43C1F814C0FC
:100FE000C0F600039A5C40F2FF335F284FF03F00E9
:100FF00021EA030100FA02F088BF0431C4E91612A5
:101000008860002301250020636584F83550BDE821
:10101000F08100BF032AD5D8012540230120DFE855
:1010200002F0030E030500BF82E700BFAEF1C070FF
:10103000B0FA80F0400904E0032A04D3C2D1CEF311
:1010400000600028BED0012540230120636584F89C
:101050003550BDE8F0810000B0B5044600F0E6F878
:10106000054640F20000C2F200000078611C18BF83
:10107000044400BF00F0DAF8401BA042FAD3B0BD30
:101080002DE9F04F83B000F1200200F13E4741F21C
:101090000005009207F1FF77C4F2020507224FEA2C
:1010A000B726A84208BF042200254FF000084FF0E1
:1010B0000009042E38BF4FEAB72201920AE000BFB0
:1010C00009F1010908F10208B9F1100F05F1040551
:1010D00000F0A2800F68012202FA09FE17EA0E0A48
:1010E000EED0D1F804C003220CF003077E1E02FAF2
:1010F00008F4012E6FEA040B12D88468CE6804EA63
:101100000B0406FA08F634438460446824EA0E06A9
:10111000CCF3001404FA09F42643466004E000BF4F
:10112000032F01D103271EE0C6688C6806EA0B0670
:1011300004FA08F42643022FC66014D16FF00302AC
:10114000009E02EA590756F807C005F01C040F225A
:101150000B69A2402CEA0202A3401A43F251D1F8D3
:1011600004C00CF00307026807FA08F302EA0B0256
:101170001A431CF4403F0260A2D0002243F644030D
:101180000292C4F202031A6843F6004442F4804219
:101190001A601A68C4F2010402F480420292029AB0
:1011A00029F003024FF6084C2244CFF6FF7C52F898
:1011B0000C3005F00C070F26BE40B343019E06FA23
:1011C00007F73B4342F80C30A2684B6842EA0A0733
:1011D00043F60C4CDE0258BF22EA0A07A760C4F2AD
:1011E000010CDCF800209E0242EA0A0758BF22EAFE
:1011F0000A07CCF8007062689E0342EA0A0758BFEB
:1012000022EA0A0767602268DB0342EA0A0758BF3E
:1012100022EA0A07276053E703B0BDE8F08F000019
:10122000002A08BF090481617047000040F2B41031
:10123000C2F2000000687047002804BF0120704718
:10124000F0B581B0044690F83D0028B9002084F83C
:101250003C00204600F090F9242084F83D002068EE
:10126000016821F001010160016841F40041016061
:10127000016821F40041016000F022FB636848F23C
:10128000A16CC0F2010C40F60011C0F23D016345B3
:101290003CBF48F28041C0F21E01884202D20120C8
:1012A00001B0F0BD4DF68361C4F21B31A0FB011209
:1012B0002168970CD1F804E04FF496762EF03F05A4
:1012C00045EA92454D60774348F638160D6AC0F2FC
:1012D0004106A7FB067625F03F07634538BF960C0D
:1012E000721C3A430A62CA6948F2A0664CF6FF775C
:1012F000C0F20106B34222EA07020BD801385B00B4
:10130000B0FBF3F001306FF31F30042898BF0420C6
:101310001BE000BFA768013857B119277B43B0FB1A
:10132000F3F001306FF31F3070B100F5804007E03B
:1013300003EB4303B0FBF3F001306FF31F3018B140
:1013400000F5004001E000BF01201043C8610868BB
:10135000D4E9072320F0C0001043184308608868D0
:1013600048F2FF3204F10C0790438CCF184310432E
:10137000A6698860C86820F0FF0038433043C86021
:10138000086840F00100086000202021206484F8F3
:101390003D10206384F83E0001B0F0BD2DE9F0431C
:1013A00083B01E46174689460446FFF73FFF94F870
:1013B0003D10202924D10546206800BF8169890796
:1013C0001AD5FFF733FF411B20681A29F6D381692C
:1013D0008907F3D500202021206384F83D1084F88C
:1013E0003E00216C41F02001216484F83C00022081
:1013F00003B0BDE8F08300BF94F83C10012903D18D
:10140000022003B0BDE8F083012184F83C1001689C
:10141000C90703D1016841F001010160016840F290
:10142000020821F400610160212184F83D1010219F
:1014300084F83E100021216467626685618DC0F2E8
:1014400001082185A8F10211E162E16A0A9E11F505
:10145000803F18BF01291DD1016841F480710160EE
:1014600020464FF0011100223346009500F01CFF8A
:1014700050B120680068C00544BF4FF4007020647C
:10148000012003B0BDE8F0832069B0F5804F07D19B
:10149000FE2015E00829DFD0216B1229DCD0DFE720
:1014A000062000EAD9102168F030086108F1060131
:1014B000204632462B4600F0DDFF0028E0D1FF2019
:1014C000216800EA090008612046414632462B4661
:1014D00000F0D0FF0028D3D100200290206841699D
:1014E000029180690290029806E000BF20463146D2
:1014F0002A4600F07BFE18BB208D68B3204631469B
:101500002A4601F023F8D8B9606A2168024612F829
:10151000013B0B616262628D013A6285228D531E2E
:1015200023854F697F07E1D51B04DFD04378023064
:101530000B616062608D01386085901E2085D5E763
:10154000206C04289CD12068016841F4007101607E
:10155000012003B0BDE8F0832068016841F4007108
:101560000160202084F83D00002084F83E0084F8CB
:101570003C0003B0BDE8F083B0B586B045F2004151
:101580000068C4F20001002488420594CDE90344B8
:101590000294019402D006B0B0BD00BF43F63005FE
:1015A0000094C4F20205286840F002002860286810
:1015B00000F0020000900098C02001901220CDE9B8
:1015C0000204032004900420059001F5D83001A9FD
:1015D000FFF756FD0094286940F40010286128693F
:1015E00000F400100090009806B0B0BD40F200007A
:1015F00040F2B411C2F20000C2F2000100780A68A1
:10160000104408607047000080B543F60040C4F203
:101610000200016841F400710160016841F48061D9
:101620000160016841F480710160032000F086F8D8
:101630000F2000F005F800F027F8002080BD000022
:1016400070B540F20006C2F2000640F2080132789E
:10165000C2F200014FF47A730968B3FBF2F2044658
:10166000B1FBF2F1084600F04BFB0F2C4FF00105E7
:1016700008D838B94FF0FF3021460022002500F08D
:1016800031F87460284670BD82B0002043F64001F6
:101690000190C4F202014A6842F480424A604A68FA
:1016A00002F480420192019A0090086840F0805054
:1016B0000860086800F080500090009802B0704701
:1016C000002848BF704700F01F01012202FA01F113
:1016D0001C2202EAD0004EF20012CEF2000281502B
:1016E0007047000010B54EF60C5CCEF2000CDCF832
:1016F0000030C3F3022E8EF00704042C28BF04240C
:10170000BEF103034FF0FF3E0EFA04F438BF00238E
:10171000A14399400EFA03F39A43114300F00F02DC
:1017200000F160430901043A03F564436244002870
:1017300048BF02F10C03197010BD00004EF60C51A9
:10174000CEF200010A684FF6FF031A4060F30A2246
:1017500042F0806040F0FD7008607047002804BFD0
:10176000012070472DE9F04143F60808C4F2020851
:101770000446D8F8F8030D4600F00700884207D267
:1017800088F8F853D8F8F80300F00700A84277D19A
:101790002068810717D5410705D5D8F8001041F416
:1017A000E051C8F80010010705D5D8F8001041F441
:1017B0006041C8F80010D8F80010A26821F0F001CC
:1017C0001143C8F80010C00740D1D8F8F80300F062
:1017D0000700A84207D988F8F853D8F8F80300F0B2
:1017E0000700A8424CD12068410707D5D8F800105F
:1017F000E26821F4E0511143C8F80010000708D551
:10180000D8F80000216920F4604040EAC100C8F81F
:10181000000000F069F8D8F8001042F64642C1F323
:101820000311C0F60002515C40F2080220FA01F1F7
:1018300040F20400C2F200000068C2F2000211602F
:10184000FFF7FEFE0020BDE8F08100BF6068811E4A
:10185000022907D258F8081C89015CBF0120BDE8A5
:10186000F08111E0012807D158F8081C89035CBFFA
:101870000120BDE8F08107E058F8081C890703D46F
:101880000120BDE8F08100BFD8F8001021F003016D
:101890000843C8F80000FFF7C9FC064641F2883744
:1018A000D8F80000616800F00C00B0EB810F8CD01C
:1018B000FFF7BCFC801BB842F2D90320BDE8F081E1
:1018C00040F2080043F60801C2F20000C4F202012F
:1018D0000068096842F65642C1F38221C0F6000250
:1018E000515CC8407047000010B543F60404C4F2D0
:1018F0000204606800F00C0008280BD0042819BF0F
:1019000042F20040C0F2F40047F64000C0F27D1001
:1019100010BD00BF206821682368490247F64001D6
:10192000C0F27D1100F03F02C3F388105CBF42F2A9
:101930000041C0F2F401A1FB00010023FEF7B6FC58
:1019400021680222C1F3014102EB4101B0FBF1F039
:1019500010BD0000002804BF012070472DE9F041B0
:1019600082B00446007843F60006C007C4F20206BF
:101970000CD0B06800F00C00042840F08180306882
:10198000800303D56068002800F068812078800714
:101990001BD5B06810F00C0F09D0B06800F00C0037
:1019A000082840F087807068400200F1838030682A
:1019B000800703D5E068012840F050813068216934
:1019C00020F0F80040EAC10030602078000713D40E
:1019D000207840072AD4A569002D00F03A81B0682C
:1019E00000F00C00082840F0A580012D40F00E8189
:1019F000012002B0BDE8F0816069002800F082801B
:101A00000020C4F247200121C0F8801EFFF70EFC21
:101A1000054600BF706F8007DAD4FFF707FC401B54
:101A20000228F7D9032002B0BDE8F081306C5FEAEC
:101A3000C0080AD400200190306C40F0805030641F
:101A4000306C00F080500190019847F20007C4F21A
:101A500000073868C00547D4386840F480703860A3
:101A6000FFF7E4FB054600BF3868C0053CD4FFF72C
:101A7000DDFB401B0228F7D9032002B0BDE8F0814E
:101A8000B06800F00C00082803D1706840023FF5F0
:101A900076AF61683068B1F5803F07D0B1F5A02F0F
:101AA00040F09A8040F480203060306840F480300C
:101AB00030609AE0E068002840F20000C4F247205D
:101AC0005CD001210160FFF7B1FB0546306880075B
:101AD0003FF574AFFFF7AAFB401B0228F6D903209D
:101AE00002B0BDE8F08100BFA168306F012905D0C8
:101AF000052955D140F004003067306F40F00100F7
:101B0000306756E00020C4F247200021C0F8801E54
:101B1000FFF78CFB054600BF706F80077FF558AF5D
:101B2000FFF784FB401B0228F6D9032002B0BDE872
:101B3000F08100BF0027C4F2472700203866FFF776
:101B400075FB022D05460DD13068800140F18A8079
:101B5000FFF76CFB401B02284FF00300F4D902B0E2
:101B6000BDE8F0813068800173D5FFF75FFB401B53
:101B700002284FF00300F5D9F1E700BF0021016012
:101B8000FFF754FB054600BF306880077FF51DAFA7
:101B9000FFF74CFB401B02284FF00300F4D9DEE7AF
:101BA00020F001003067306F002920F0040030671A
:101BB0007AD0FFF73BFB054641F28837306F80074C
:101BC00000F18480FFF732FB401BB842F6D90320B6
:101BD00002B0BDE8F08100BF20F480303060306892
:101BE000002920F4802030607AD0FFF71FFB0546E3
:101BF000306880033FF5CAAEFFF718FB401B64282E
:101C0000F6D9032002B0BDE8F08100BF7068E16939
:101C100000F480028A4221D1216A00F03F028A4208
:101C20001CD147F6C071626A0140B1EB821F15D129
:101C3000A16A4FF6FF73C903994300F44032A1F53E
:101C400080318A420AD1E16A00F07060B0EB016F26
:101C500004D1002002B0BDE8F08100BF012002B035
:101C6000BDE8F08104F11C052FCD084340EA821045
:101C7000D9034FF6FF729143A1F5803140EA056028
:101C80000843706001203866FFF7D0FA044600BFB1
:101C900030688001DDD4FFF7C9FA001B02284FF03D
:101CA0000300F5D95BE700BFFFF7C0FA054641F234
:101CB000883700BF306F800708D5FFF7B7FA401BA1
:101CC000B8424FF00300F5D949E700BFB8F1000F63
:101CD0003FF581AE306C20F0805030647BE600BF71
:101CE000FFF7A4FA054600BF306880037FF54EAECB
:101CF000FFF79CFA401B64284FF00300F4D92EE74D
:101D0000411E0020B0EB116F1CBF012070474EF246
:101D10001002CEF2000251604EF62351CEF20001C5
:101D2000F0230B700721906011607047704700002E
:101D30007047000090F83C20012A4FF0020241D089
:101D400010B580F83D200268D2F804E0D2F808C04F
:101D50000C682EF07003234340F6FF34C4F20004F5
:101D6000A242536010DCB2F1804F1ED040F200431B
:101D7000C4F200039A4218D040F60003C4F20003F4
:101D80009A4212D016E000BF40F60043C4F20003AE
:101D90009A420AD044F20003C4F201039A4204D0EA
:101DA0000023C4F201039A4204D149682CF0800355
:101DB000194391600121002280F83D1080F83C20F9
:101DC000BDE8104010467047002804BF012070474E
:101DD00010B5044690F83D0028B9002084F83C0076
:101DE000204600F01FF8022084F83D002068211DE5
:101DF00000F0C0FC012084F8460084F83E0084F81E
:101E00003F0084F8400084F8410084F8420084F8E0
:101E1000430084F8440084F8450084F83D00002025
:101E200010BD00000068B0F1804F18BF704780B54A
:101E300082B00020019043F64000C4F20200016825
:101E4000002241F0010101600068002100F0010062
:101E5000019001981C20FFF745FC1C2002B0BDE852
:101E60008040FFF72DBC000090F83D1001291CBFF9
:101E700001207047022180F83D10006840F6FF31D4
:101E8000C4F2000188420FDCB0F1804F1DD040F257
:101E90000041C4F20001884217D040F60001C4F2AC
:101EA0000001884211D017E040F60041C4F2000161
:101EB00088420AD044F20001C4F20101884204D0F1
:101EC0000021C4F20101884206D1816801F00701B6
:101ED000062904BF00207047016841F0010101603C
:101EE0000020704790F83C20012A4FF002026CD08D
:101EF00080B580F83D20D0F800C04FF67772DCF84E
:101F0000083023EA0202CCF808200B684F2B29DCAA
:101F10001F2B45DD202B46D0302B44D0402B40F0EA
:101F2000AF80D1F804E0C968DCF82030DCF820206C
:101F300022F00102CCF82020DCF8182022F0F00278
:101F400042EA011123F00A0242EA0E02CCF818100C
:101F5000CCF82020DCF8081041F0470121F03001D6
:101F600028E000BF6F2B33DDB3F5005F74D0B3F50D
:101F7000805F21D0702B40F08380D1E901E3C968F4
:101F8000DCF8082043EA0E0322F47F4243EA0121F1
:101F90001143CCF80810DCF8081041F0770109E093
:101FA0000BB1102B6CD1DCF8081021F07001194333
:101FB00041F00701CCF808100022012180F83D1003
:101FC000002180F83C10BDE880401046704700BFFB
:101FD000502B21D0602B53D1D1F804E0C968DCF834
:101FE0002030DCF8202022F01002CCF82020DCF891
:101FF000182022F4704242EA013123F0A00242EAA2
:102000000E12CCF81810CCF82020DCF8081041F0A3
:10201000670121F01001CDE7D1F804E0C968DCF8D0
:102020002030DCF8202022F00102CCF82020DCF85F
:10203000182022F0F00242EA011123F00A0242EADB
:102040000E02CCF81810CCF82020DCF8081041F073
:10205000570121F02001ADE7D1E901E3C968DCF8BF
:10206000082043EA0E0322F47F4243EA0121114390
:10207000CCF80810DCF8081041F480419AE700BF62
:1020800001229AE77047000070B504460068C568F1
:102090000669B10716D515F0020113D06FF00201E1
:1020A0000161012121778069800703D02046FFF775
:1020B000E9FF05E0204600F08FF8204600F08EF89A
:1020C00000202077700719D515F0040016D020687D
:1020D0006FF00401016102212177806910F4407FD3
:1020E00004D02046FFF7CEFF06E000BF204600F0F8
:1020F00073F8204600F072F800202077300717D5DB
:1021000015F0080014D020686FF008010161042167
:102110002177C069800703D02046FFF7B3FF05E0B1
:10212000204600F059F8204600F058F800202077AB
:10213000F00619D515F0100016D020686FF01001C8
:10214000016108212177C06910F4407F04D0204646
:10215000FFF798FF06E000BF204600F03DF820465C
:1021600000F03CF800202077F00718BF15F00100C0
:1021700002D1300609D412E020686FF0010101613C
:10218000204600F02DF8300609D515F0800006D065
:1021900020686FF0800101612046FFF7C7FD7006DF
:1021A00009D515F0400006D020686FF040010161AC
:1021B000204600F017F8B00658BF70BD15F020009B
:1021C00008D021686FF0200220460A61BDE8704007
:1021D000FFF7AEBD70BD0000704700007047000003
:1021E0007047000070470000FEE7000070B503680C
:1021F000044653F8140F400711D40E46481C29D04A
:1022000086BB00BF1868400527D4FFF70FF8236886
:1022100053F8140F400737D518684007F2D500204F
:1022200070BD00BF18684007F9D41868400514D481
:1022300018684007F3D4186840050ED418684007A2
:10224000EDD41868400508D4186840074FF0000026
:1022500048BF70BD18684005E4D56FF48060186011
:10226000042012E0154603E053F8140F4007D6D4BB
:1022700018684005F1D4FEF7D9FF401B2368B0422F
:10228000F2D958694007EFD4202000212022216391
:1022900084F83D2084F83E10226C10432064012015
:1022A00084F83C1070BD00002DE9F041054600683F
:1022B0001E46144601F47F0201338FB242D0DDF88E
:1022C0001880B2F5803F40F0878040693840C01BDD
:1022D000B0FA80F04009A04240F0C8804EB924E036
:1022E00040693840C01BB0FA80F04009A04240F07D
:1022F000BD80FEF79BFFA0EB08012868B142EFD933
:1023000041693940C91BB1FA81F14909A142E7D1BC
:102310009BE000BF40693840C01BB0FA80F0400924
:10232000A0424FF0000040F0A280FEF77FFF286837
:1023300041693940C91BB1FA81F14909A142E9D18A
:1023400083E000BFB2F5803F24D100BF416939402E
:10235000C91BB1FA81F14909A14240F08780416966
:102360003940C91BB1FA81F14909A14240F07E8090
:1023700041693940C91BB1FA81F14909A14275D1BE
:1023800041693940C91BB1FA81F14909A142DDD047
:102390006CE000BF81693940C91BB1FA81F149097C
:1023A000A14263D181693940C91BB1FA81F1490960
:1023B000A1425BD181693940C91BB1FA81F1490958
:1023C000A14253D181693940C91BB1FA81F1490950
:1023D000A142DFD04AE000BF80693840C01BB0FA9C
:1023E00080F04009A04241D146B923E080693840DD
:1023F000C01BB0FA80F04009A04237D1FEF716FFAB
:10240000A0EB08012868B142F0D981693940C91BA5
:10241000B1FA81F14909A142E8D116E0806938405A
:10242000C01BB0FA80F04009A0424FF0000018BF76
:10243000BDE8F081FEF7FAFE286881693940C91BC2
:10244000B1FA81F14909A142E8D100202021286395
:1024500085F83D1085F83E00296C41F02001296483
:1024600085F83C000120BDE8F08100BF0020BDE8F8
:10247000F0810000F0B581B0044600681D46436954
:102480008FB203EA0701B94202D1002001B0F0BDCA
:102490004169164601323CD0490512D47EB300BFD3
:1024A000FEF7C4FE411B2068B14203D9416939409F
:1024B000B9422BD141693940B942E6D04169490559
:1024C000EED5016841F4007101606FF480614161F3
:1024D000042000212022216384F83D2084F83E104E
:1024E000226C1043206484F83C10012001B0F0BD40
:1024F00041693940B942C8D041694905E1D4FEF784
:1025000095FE206841693940B942F1D02020E0E7CA
:1025100041694905D5D441693940B942B5D04169CD
:102520004905CED441693940B942AED04169490527
:10253000C7D441693940B942A7D041694905C0D4DF
:1025400041693940B942E3D19FE7000070B50368A3
:10255000044653F8140F000611D40E46481C29D027
:1025600086BB00BF1868400527D4FEF75FFE2368CE
:1025700053F8140F000637D518680006F2D500206E
:1025800070BD00BF18680006F9D41868400514D45F
:1025900018680006F3D4186840050ED418680006C1
:1025A000EDD41868400508D4186800064FF0000004
:1025B00048BF70BD18684005E4D56FF480601860AE
:1025C000042012E0154603E053F8140F0006D6D499
:1025D00018684005F1D4FEF729FE401B2368B0427D
:1025E000F2D958690006EFD420200021202221636F
:1025F00084F83D2084F83E10226C104320640120B2
:1026000084F83C1070BD000000F046B910B584B0ED
:102610006C46024605A12046FDF7C0FE802000F072
:10262000B7F9204600F0D6F904B010BD4D6F6973BC
:10263000747572653A20253475000000FEE70000CD
:10264000FEE700007047000040F20040C4F20200C4
:1026500002210022FEF7E4BD40F20040C4F2020075
:1026600002210122FEF7DCBD7047000010B540F2E8
:102670007004C2F200042046FEF7B8FA2046642136
:10268000FEF734FA10B1002407E000BF40F27000FA
:10269000C2F20000FEF722F9044640F27000C2F2D6
:1026A0000000FEF72BFBA0B210BD0000FEF79EBF9E
:1026B00070B592B006AC20463021FDF76EFF0025C4
:1026C00043F640000595CDE90355CDE90155009548
:1026D000C4F202000168022641F0805101600068E6
:1026E00000F080500090009847F200000095C4F27E
:1026F0000000016841F440410160006800F440407E
:10270000009000980120099010200A900E904FF43C
:10271000A8700F900420CDE9100020460696CDE960
:102720000C65FFF717F918B172B600BFFEE700BFDE
:102730000F20CDE901064FF48050CDE9040501A832
:1027400002210395FFF70AF810B172B6FEE700BF49
:1027500012B070BD4EF68850CEF20000016841F410
:10276000700101607047000040F26C10C2F200007E
:10277000FFF78ABC10B540F2FF7E0368C4F2000E7A
:1027800040F2000C7045C4F2010C1DDD40F6000261
:10279000C4F20002904220D060451ED040F60042B4
:1027A000C4F20002904218D04FF6FF72C4F2000249
:1027B00090421CDC704525DCB0F1804F3AD040F2ED
:1027C0000042C4F2000233E0B0F1804F05D040F285
:1027D0000042C4F200029042E6D14A6823F070033E
:1027E00013434FF6FF72C4F200029042E2DD44F25E
:1027F000FF32C4F20102904210DC60451AD044F26C
:10280000000213E040F60002C4F20002904211D030
:1028100040F60042C4F200020AE000BF44F60002A3
:10282000C4F20102904205D044F20042C4F2010217
:10283000904203D1CA6823F44073134323F080020B
:102840004B69D1F800E08C681A4360450260C462AD
:10285000C0F828E002D10969CCF8301001214161AB
:102860000169C90708BF10BD016921F001010161BB
:1028700010BD0000FEE7000040F20040C4F202007C
:1028800001210022FEF7CCBC40F20040C4F202005D
:1028900001210122FEF7C4BC70B582B03220FEF7E0
:1028A000DBFB40F2181443F63C06C2F20004C0F60B
:1028B0000C06642501AA20464E21042301960095AA
:1028C000FEF76CFD0520FEF7C7FB01AA20464E214E
:1028D000042301960095FEF761FD0120FEF7BCFB85
:1028E00001AA20464E21042301960095FEF756FDCD
:1028F00042F62C00C0F60C00019001AA20464E21A1
:1029000004230095FEF74AFD0A20FEF7A5FB42F6D8
:102910002C00C8F68C00019001AA20464E21042309
:102920000095FEF73BFD40F60C00C8F68C000190C8
:1029300001AA20464E2104230095FEF72FFD40F604
:102940000C00C1F61C00019001AA20464E21042370
:102950000095FEF723FD0220FEF77EFB40F60C00FB
:10296000C6F66C00019001AA20464E210423009572
:10297000FEF714FD40F60C00CCF6CC00019001AA45
:1029800020464E2104230095FEF708FD02B070BDDD
:1029900080B582B000F0F001000101F10C020831B5
:1029A0008DF8051000F10C0108308DF8070040F299
:1029B00018108DF804208DF806104FF0640CC2F248
:1029C000000001AA4E210423CDF800C0FEF7E6FC6A
:1029D00002B080BD0178002908BF7047F0B583B010
:1029E00040F21814461E6427C2F2000402AD00BF74
:1029F00021F00F00090100F10D0209308DF80900E6
:102A000001F10D008DF80A0001F109008DF8082090
:102A10008DF80B0020464E212A4604230097FEF72E
:102A2000BDFCB17801360029E2D103B0BDE8F04029
:102A30007047000088B040F20048C4F20208FEF778
:102A4000E3FDFFF735FE002643F630040596CDE999
:102A50000366CDE901660696C4F20204206840F2DE
:102A6000031140F0010020602068002200F0010006
:102A7000069006980696206840F0020020602068C4
:102A800000F00200069006984046FEF7C9FB0320BE
:102A90000190022001AD0127CDE9030640462946F9
:102AA0000297FEF7EDFA4FF48070CDE9010740463A
:102AB0002946CDE90366FEF7E3FA01962068002176
:102AC00040F4800020602068002200F48000019023
:102AD00001983820FEF706FE3820FEF7F1FD40F29F
:102AE00070000123A8F56441C2F20000C0F6007333
:102AF00004964FF48032067680F82060C0E90A36EA
:102B0000C76180F8306080E84600C0E9036647612D
:102B1000FDF7E8FE10B172B6FEE700BF40F27000AC
:102B2000C2F2000001A9CDE901670396FDF71EFE80
:102B300010B172B6FEE700BF40F21810A8F5D83108
:102B4000C2F2000048F2A06200244FF48043C0F2B9
:102B5000010280E81600C0E90343C0E90544C0E96A
:102B60000744FEF769FB18B172B600BFFEE700BF6D
:102B700040F26C10C2F200004FF0804142F20F733D
:102B80000494CDE90244CDE9064442F27F5280E844
:102B90001600C0E903348461FFF716F910B172B66C
:102BA000FEE700BF4FF48050019040F26C10C2F27B
:102BB000000001A9FFF796F910B172B6FEE700BF59
:102BC00040F26C10C2F2000006A9FFF7B3F818B18A
:102BD00072B600BFFEE700BF40F26C10C2F2000008
:102BE000FFF742F9FFF710FD08E000BFFFF744FED2
:102BF000FFF72AFD4FF47A70FEF72EFAFFF736FD45
:102C00000446FFF703FD20097C28EFD8FFF724FDD9
:102C100040F6B830FEF720FAFFF736FEEAE7303824
:102C20000A2801D20120704700207047F1EE100AF7
:102C30004FF6FF71C0F2C03120EA010040F0407051
:102C4000E1EE100A704700000000000000000102E1
:102C5000030406070809000000000102030400063F
:102C60001016000610160000882C00080000002036
:102C700010000000FC010008982C00081000002043
:102C8000A80700001C02000801000000100000005E
:082C90000024F4000000000024
:040000050800019955
:00000001FF
