:020000040800F2
:10000000100700206D020008CD20000885180008A8
:10001000C920000879060008D5210008000000006A
:10002000000000000000000000000000F5200008B3
:100030007D06000800000000D12000081D210008F6
:10004000870200088702000887020008870200086C
:10005000870200088702000887020008870200085C
:10006000870200088702000887020008870200084C
:10007000870200088702000887020008870200083C
:1000800087020008870200088702000800000000BD
:1000900000000000000000000000000087020008CF
:1000A000870200088702000887020008870200080C
:1000B00087020008870200088702000887020008FC
:1000C00087020008870200088702000887020008EC
:1000D000870200088702000887020008000000006D
:1000E000870200088702000887020008000000005D
:1000F000000000000000000000000000870200086F
:10010000000000008702000887020008870200083C
:1001100000000000000000000000000000000000DF
:10012000870200088702000887020008870200088B
:10013000870200080000000000000000000000002E
:10014000000000000000000000000000870200081E
:10015000870200088702000887020008870200085B
:10016000870200088702000800000000000000006D
:10017000000000000000000000000000000000007F
:1001800000000000870200080000000000000000DE
:10019000870200088702000800F002F800F057F814
:1001A00014A696E8000CB244B344DA4501D100F03D
:1001B0004EF8BAE80F000FA696E83000A5EB04054C
:1001C00004EB0607AAEB0704A7F101074FEA151590
:1001D0004FEA3414A4F10104AC4201D300F037F823
:1001E00013F0010F18BFFB1A43F0010300F001F8F0
:1001F000DBE718472822000048220000103A24BFFD
:1002000078C878C1FAD8520724BF30C830C144BF7B
:1002100004680C6070470000704700000023002451
:1002200000250026103A28BF78C1FBD8520728BF06
:1002300030C148BF0B607047642900F00381002083
:1002400070471FB502F0D0F81FBD10B510BD00F00B
:10025000D9F91146FFF7F5FF02F026F800F0F7F99B
:1002600003B4FFF7F2FF03BC00F0FEF90948804732
:1002700009480047FEE7FEE7FEE7FEE7FEE7FEE788
:10028000FEE7FEE7FEE7FEE704480549054A064BA0
:1002900070470000C12100089901000810010020EA
:1002A00010070020100300201003002053EA020C66
:1002B00000F069802DE9F04B4FF00006002B1FBFC6
:1002C000B3FA83F503FA05F424FA05F65E4012BF8B
:1002D0001643B2FA82F502FA05F4C5F120051EBFF5
:1002E00022FA05FC44EA0C04203556EA044C4FEA95
:1002F000144418BF641C4FF000084FF000099042EE
:1003000071EB030C39D3002919BFB1FA81F701FA57
:1003100007F6B0FA80F700FA07F6C7F120071EBF0C
:1003200020FA07FC46EA0C062037B6FBF4FCA7EBE4
:100330000507103F07F01F0BCBF120062CFA06F63D
:100340000CFA0BFB44BFB3460026202FA4BF5E4629
:100350004FF0000B5BEA060C08BF4FF0010B19EBE6
:100360000B0948EB0608ABFB027C06FB02CC0BFB3F
:1003700003CCC01B71EB0C01C1E70B4602464146A2
:100380004846BDE8F08B13B5084318BF4FF0FF3067
:100390000146AFF30080BDE81C4070470FB41CB5A8
:1003A0000C0007AA009007D04142A14202D320448A
:1003B000401E01E04FF0FF30074B7B44694601903F
:1003C000069800F004F90020002C01D00099087074
:1003D0001CBC5DF814FB0000370200002DE9F04161
:1003E0000E460446002020622046E168884730B36C
:1003F000252805D0D4E901219047206A401CF2E766
:10040000E168204600278847050018D0A5F1410083
:10041000192802D820354FF4006732462946204675
:100420002760FFF709FF40B1012804D0F61D26F030
:1004300007060836D8E7361DD6E72846DAE7206AE9
:10044000BDE8F0812DE9F0410646002410687529C9
:10045000314616A510D0AFF30080002802DA4042E2
:1004600013A507E031688A0701D512A502E0490704
:1004700004D511A5012401E0AFF3008000210A2278
:1004800006F1240709E0B0FBF2FCB0FBF2F302FB3B
:100490001C00303078541846491C0028F3D12346FC
:1004A0002A463046BDE8F04100F032B800000000B6
:1004B0002D0000002B000000200000004FF0000283
:1004C00000B5134694469646203922BFA0E80C504A
:1004D000A0E80C50B1F12001BFF4F7AF090728BF25
:1004E000A0E80C5048BF0CC05DF804EB890028BFA1
:1004F00040F8042B08BF704748BF20F8022B11F0CA
:10050000804F18BF00F8012B704770477047704745
:100510002DE9F0470D4699469246044600F124081D
:100520000168880604D5E06921F01001216000E02F
:100530000120A84201DD471B00E00027A1697A19CC
:1005400002EB0900081AA0612078C00602D42046F8
:10055000AFF30080002608E0D4E901211AF8060074
:100560009047206A401C761C20624E45F4DB2078C0
:10057000C0060AD52046AFF3008006E0D4E9012189
:1005800030209047206A401C2062381EA7F10107E6
:10059000F4DC07E0D4E9012118F805009047206A4F
:1005A000401C2062281EA5F10105F3DC2046AFF3B4
:1005B00000802078000602D50220BDE8F0870120E7
:1005C000FBE7000001694A1C02610878704700B52A
:1005D0008FB0CDE901310021059105497944CDE97C
:1005E000031011466846FFF7F9FE0FB000BD00008A
:1005F000E5FFFFFFD1E900239A4202D2531C0B60B2
:1006000010707047754600F02BF8AE46050069463D
:10061000534620F00700854618B020B5FFF734FE9A
:10062000BDE820404FF000064FF000074FF00008F3
:100630004FF0000BAC46ACE8C009ACE8C009ACE830
:10064000C009ACE8C00921F007018D46704710B51C
:100650000446AFF300802046BDE81040FFF700BE1F
:10066000004870471000002001491820ABBEFEE78B
:100670002600020070470000FEE7000070470000FF
:1006800070B581B00022009290F83C20012A03D17D
:10069000022001B070BD00BFD1F800E00122BEF120
:1006A0000A0F1FFA8EFC80F83C2009D34FEA4C0257
:1006B000036812FA8EF2A2F11E0403F10C0204E0A8
:1006C00003680EEB4E0403F1100207251668A540DF
:1006D00026EA050515608D68166805FA04F43443AA
:1006E00014604968062907D801EB81014A1F1946A1
:1006F00051F8345F0FE000BF0C2901EB810105D8F0
:10070000A1F12302194651F8305F04E0A1F1410242
:10071000194651F82C5F1F24944025EA04040C600C
:100720000CFA02F20C6842F2043CC4F2010C2243BF
:10073000ACF54174A3420A6006D0002180F83C1059
:10074000002001B070BD00BF1221BEF1110FC1F237
:10075000000118BF8E453BD1DCF800208E4522F405
:100760008002CCF80020DCF8002042F40002CCF833
:100770000020E2D140F20801C2F2000109684DF602
:100780008362C4F21B32A1FB0212910C01EB8101C6
:100790004900009100990029CFD000BF009901398C
:1007A000009100990029C8D0009901390091009961
:1007B0000029C2D000990139009100990029BCD0CC
:1007C00000990139009100990029E7D1B5E700BFF0
:1007D000BEF1120FB1D1DCF8001021F40001CCF809
:1007E0000010DCF8001041F48001CCF80010A4E700
:1007F0000068C06C70470000002804BF01207047EB
:1008000010B5016C00293DD0016CC90645D4016CBE
:1008100041F202129143023142F204320164C4F205
:100820000102116821F440311160136890E8121040
:100830002343D0F810E013604A68012422F4807248
:100840004A604A68C0F6007442EA0E224A604A686A
:1008500022F040724A604A6842EA0C024A608A68A2
:1008600022F400628A60C2688B681A438A60826AD6
:100870008B68A24223F070638B608B6810D123F0E9
:10088000405216E0044600F065F8204600216164FD
:1008900084F83C10016CC906B9D5012153E000BFB2
:1008A0001A438A608A6822F040528A60C26A8B6862
:1008B0001A438A608A6822F002028A608A68037E8C
:1008C00090F8204042EA43028A604A6884B142F4C8
:1008D00000624A604A684EF2000322F460424A60B5
:1008E000426ACFF6FF734C6803EB4232224301E0C9
:1008F00022F400624A60CA6A40F2000C22F47002DC
:10090000CA62C3694269CFF6F07CCC6A0CEB035330
:100910002343CB628B6823F400738B6090F83030F4
:100920008C6844EA43238B608B6823F480638B607C
:100930008B6843EA82228A6000214164026C0123B1
:1009400063F301020264002280F83C20BDE81040FD
:100950000846704780B586B042F200010068C4F2D4
:100960000101002288420592CDE903220292019200
:1009700002D006B080BD00BF43F630000092C4F242
:100980000200436943F480734361436903F4807355
:100990000093009B0092036843F00103036000682A
:1009A00000F0010000900098012001900320CDE9A3
:1009B000020201F5604001A900F01EF906B080BDF9
:1009C00070B5044600680D468268520544BF8068D1
:1009D0005FEAC05038D400F0E5F921680A68920750
:1009E00049D40646681C3CD0DDB90868800721D58B
:1009F000086880073FD4086880071BD5086880070F
:100A000039D40868800715D50868800733D408688A
:100A100080070FD508688007E7D52CE008688007B5
:100A200029D400F0BFF9801B2168A842F6D90868D4
:100A30008007F3D4206C40F004002064002084F888
:100A40003C00032070BD00BF206C40F020002064FB
:100A5000002084F83C00012070BD00BF08688007BA
:100A600009D40868800706D4086880075CBF086856
:100A70005FEA8070F2D56FF012000860206C40F4DD
:100A800000702064886810F0405F01D0002070BDC5
:100A9000207E0028FAD1C86A10F4700F02D088684E
:100AA0004005F3D4206C20F480702064206CC004D6
:100AB000ECD4206C40F001002064002070BD0000E8
:100AC00010B581B00021009190F83C10012903D1AC
:100AD000022001B010BD00BF0468012180F83C1065
:100AE000214651F8083FDB0729D10B684DF6836298
:100AF00043F001030B6040F20803C2F200031B68DD
:100B0000C4F21B32A3FB02239A0C02EB42020092B6
:100B1000009AA2B1009A013A0092009A7AB1009A22
:100B2000013A0092009A52B1009A013A0092009A5A
:100B30002AB1009A013A0092009A002AEAD10A6882
:100B4000036CD2070CD143F01001016400F14401A1
:100B500001200A6810430860002001B010BD00BFEA
:100B600040F2017223EA020202F5807202646268B6
:100B7000520504D5026C012363F30D320264026C4A
:100B80004FF0000C0023D20444BF426C22F0060355
:100B900042F2000E436480F83CC06FF02200C4F2C1
:100BA000010E2060DEF80403C00609D074450BD1A5
:100BB000DEF8080010F0405F06D14FF08040C8E733
:100BC000086810F0405FF8D0002001B010BD0000B0
:100BD000B0B5044600F0E6F8054640F20000C2F267
:100BE00000000078611C18BF044400BF00F0DAF870
:100BF000401BA042FAD3B0BD2DE9F04F83B000F105
:100C0000200200F13E4741F20005009207F1FF7714
:100C1000C4F2020507224FEAB726A84208BF042201
:100C200000254FF000084FF00009042E38BF4FEAAE
:100C3000B72201920AE000BF09F1010908F1020898
:100C4000B9F1100F05F1040500F0A2800F68012230
:100C500002FA09FE17EA0E0AEED0D1F804C0032208
:100C60000CF003077E1E02FA08F4012E6FEA040B53
:100C700012D88468CE6804EA0B0406FA08F63443F6
:100C80008460446824EA0E06CCF3001404FA09F4E4
:100C90002643466004E000BF032F01D103271EE076
:100CA000C6688C6806EA0B0604FA08F42643022F8D
:100CB000C66014D16FF00302009E02EA590756F88D
:100CC00007C005F01C040F220B69A2402CEA0202A7
:100CD000A3401A43F251D1F804C00CF00307026894
:100CE00007FA08F302EA0B021A431CF4403F0260C1
:100CF000A2D0002243F644030292C4F202031A680F
:100D000043F6004442F480421A601A68C4F20104B7
:100D100002F480420292029A29F003024FF6084C34
:100D20002244CFF6FF7C52F80C3005F00C070F265A
:100D3000BE40B343019E06FA07F73B4342F80C302E
:100D4000A2684B6842EA0A0743F60C4CDE0258BF21
:100D500022EA0A07A760C4F2010CDCF800209E0218
:100D600042EA0A0758BF22EA0A07CCF80070626814
:100D70009E0342EA0A0758BF22EA0A076760226810
:100D8000DB0342EA0A0758BF22EA0A07276053E753
:100D900003B0BDE8F08F0000002A08BF090481619C
:100DA0007047000040F20C10C2F20000006870476B
:100DB000002804BF01207047F0B581B0044690F8C8
:100DC0003D0028B9002084F83C00204600F090F94E
:100DD000242084F83D002068016821F001010160B1
:100DE000016841F400410160016821F400410160A3
:100DF00000F012FB636848F2A16CC0F2010C40F6EF
:100E00000011C0F23D0163453CBF48F28041C0F291
:100E10001E01884202D2012001B0F0BD4DF683616F
:100E2000C4F21B31A0FB01122168970CD1F804E039
:100E30004FF496762EF03F0545EA92454D60774394
:100E400048F638160D6AC0F24106A7FB067625F073
:100E50003F07634538BF960C721C3A430A62CA6961
:100E600048F2A0664CF6FF77C0F20106B34222EAD0
:100E700007020BD801385B00B0FBF3F001306FF3D1
:100E80001F30042898BF04201BE000BFA76801386A
:100E900057B119277B43B0FBF3F001306FF31F30DC
:100EA00070B100F5804007E003EB4303B0FBF3F0C3
:100EB00001306FF31F3018B100F5004001E000BFB2
:100EC00001201043C8610868D4E9072320F0C0005E
:100ED000104318430860886848F2FF3204F10C0799
:100EE00090438CCF18431043A6698860C86820F0EF
:100EF000FF0038433043C860086840F001000860D4
:100F000000202021206484F83D10206384F83E00F6
:100F100001B0F0BD2DE9F04383B01E461746894667
:100F20000446FFF73FFF94F83D10202924D10546E1
:100F3000206800BF816989071AD5FFF733FF411B7D
:100F400020681A29F6D381698907F3D5002020216A
:100F5000206384F83D1084F83E00216C41F02001AC
:100F6000216484F83C00022003B0BDE8F08300BF98
:100F700094F83C10012903D1022003B0BDE8F083AE
:100F8000012184F83C100168C90703D1016841F0D0
:100F900001010160016840F2020821F40061016072
:100FA000212184F83D10102184F83E100021216495
:100FB00067626685618DC0F201082185A8F1021182
:100FC000E162E16A0A9E11F5803F18BF01291DD137
:100FD000016841F48071016020464FF00111002248
:100FE0003346009500F0AEFC50B120680068C005A3
:100FF00044BF4FF400702064012003B0BDE8F083CB
:101000002069B0F5804F07D1FE2015E00829DFD018
:10101000216B1229DCD0DFE7062000EAD910216815
:10102000F030086108F10601204632462B4600F0F8
:101030006FFD0028E0D1FF20216800EA0900086167
:101040002046414632462B4600F062FD0028D3D1AF
:101050000020029020684169029180690290029804
:1010600006E000BF204631462A4600F00DFC18BBC2
:10107000208D68B3204631462A4600F0B5FDD8B928
:10108000606A2168024612F8013B0B616262628D60
:10109000013A6285228D531E23854F697F07E1D572
:1010A0001B04DFD0437802300B616062608D013831
:1010B0006085901E2085D5E7206C04289CD120688F
:1010C000016841F400710160012003B0BDE8F083C4
:1010D0002068016841F400710160202084F83D001F
:1010E000002084F83E0084F83C0003B0BDE8F083A3
:1010F000B0B586B045F200410068C4F2000100249A
:1011000088420594CDE903440294019402D006B0CC
:10111000B0BD00BF43F630050094C4F20205286854
:1011200040F002002860286800F00200009000985B
:10113000C02001901220CDE9020403200490042075
:10114000059001F5D83001A9FFF756FD00942869F4
:1011500040F400102861286900F400100090009805
:1011600006B0B0BD40F2000040F20C11C2F2000027
:10117000C2F2000100780A6810440860704700005D
:1011800080B543F60040C4F20200016841F40071EA
:101190000160016841F480610160016841F480717F
:1011A0000160032000F076F8002000F005F800F060
:1011B00027F8002080BD000070B540F20006C2F2A2
:1011C000000640F208013278C2F200014FF47A734F
:1011D0000968B3FBF2F20446B1FBF2F1084600F0F5
:1011E0003BFB0F2C4FF0010508D838B94FF0FF300A
:1011F00021460022002500F021F87460284670BDC9
:1012000082B0002043F640010190C4F202014A6816
:1012100042F480424A604A6802F480420192019A94
:101220000090086840F080500860086800F0805026
:1012300000900098072002B000F02CB810B54EF6D0
:101240000C5CCEF2000CDCF80030C3F3022E8EF002
:101250000704042C28BF0424BEF103034FF0FF3E13
:101260000EFA04F438BF0023A14399400EFA03F3A9
:101270009A43114300F00F0200F160430901043A60
:1012800003F564436244002848BF02F10C0319705F
:1012900010BD00004EF60C51CEF200010A684FF668
:1012A000FF031A4060F30A2242F0806040F0FD70B4
:1012B00008607047002804BF012070472DE9F04105
:1012C00043F60808C4F202080446D8F8F8030D46AD
:1012D00000F00700884207D288F8F853D8F8F803DE
:1012E00000F00700A84277D12068810717D5410791
:1012F00005D5D8F8001041F4E051C8F800100107F6
:1013000005D5D8F8001041F46041C8F80010D8F8AD
:101310000010A26821F0F0011143C8F80010C007C6
:1013200040D1D8F8F80300F00700A84207D988F8A0
:10133000F853D8F8F80300F00700A8424CD1206811
:10134000410707D5D8F80010E26821F4E0511143B5
:10135000C8F80010000708D5D8F80000216920F46B
:10136000604040EAC100C8F8000000F069F8D8F811
:10137000001042F20242C1F30311C0F60002515CB8
:1013800040F2080220FA01F140F20400C2F200002B
:101390000068C2F200021160FFF70EFF0020BDE8F6
:1013A000F08100BF6068811E022907D258F8081C2E
:1013B00089015CBF0120BDE8F08111E0012807D15F
:1013C00058F8081C89035CBF0120BDE8F08107E0E4
:1013D00058F8081C890703D40120BDE8F08100BF3C
:1013E000D8F8001021F003010843C8F80000FFF707
:1013F000D9FC064641F28837D8F80000616800F051
:101400000C00B0EB810F8CD0FFF7CCFC801BB842F6
:10141000F2D90320BDE8F08140F2080043F608014C
:10142000C2F20000C4F202010068096842F21242EE
:10143000C1F38221C0F60002515CC8407047000031
:1014400010B543F60404C4F20204606800F00C0115
:1014500042F200400829C0F2F40007D0042918BF66
:1014600010BD41F20020C0F27A0010BD216801F0E9
:101470003F02216823684902C3F3881106D4A1FB07
:1014800000010023FEF712FF07E000BF41F2002039
:10149000C0F27A004843B0FBF2F021680222C1F3A7
:1014A000014102EB4101B0FBF1F010BD002804BF87
:1014B000012070472DE9F04182B00446007843F6E0
:1014C0000006C007C4F202060CD0B06800F00C00A1
:1014D000042840F081803068800303D560680028CC
:1014E00000F06881207880071BD5B06810F00C0FE1
:1014F00009D0B06800F00C00082840F087807068C0
:10150000400200F183803068800703D5E06801283D
:1015100040F050813068216920F0F80040EAC100B5
:1015200030602078000713D4207840072AD4A569BA
:10153000002D00F03A81B06800F00C00082840F05F
:10154000A580012D40F00E81012002B0BDE8F081A0
:101550006069002800F082800020C4F24720012149
:10156000C0F8801EFFF71EFC054600BF706F8007A5
:10157000DAD4FFF717FC401B0228F7D9032002B08A
:10158000BDE8F081306C5FEAC0080AD40020019009
:10159000306C40F080503064306C00F0805001902E
:1015A000019847F20007C4F200073868C00547D425
:1015B000386840F480703860FFF7F4FB054600BFE0
:1015C0003868C0053CD4FFF7EDFB401B0228F7D973
:1015D000032002B0BDE8F081B06800F00C000828DC
:1015E00003D1706840023FF576AF61683068B1F5AD
:1015F000803F07D0B1F5A02F40F09A8040F48020C2
:101600003060306840F4803030609AE0E068002854
:1016100040F20000C4F247205CD001210160FFF7D6
:10162000C1FB0546306880073FF574AFFFF7BAFB92
:10163000401B0228F6D9032002B0BDE8F08100BFAC
:10164000A168306F012905D0052955D140F004006B
:101650003067306F40F00100306756E00020C4F280
:1016600047200021C0F8801EFFF79CFB054600BF05
:10167000706F80077FF558AFFFF794FB401B02287F
:10168000F6D9032002B0BDE8F08100BF0027C4F204
:10169000472700203866FFF785FB022D05460DD150
:1016A0003068800140F18A80FFF77CFB401B0228F4
:1016B0004FF00300F4D902B0BDE8F081306880013A
:1016C00073D5FFF76FFB401B02284FF00300F5D9DD
:1016D000F1E700BF00210160FFF764FB054600BF92
:1016E000306880077FF51DAFFFF75CFB401B0228C9
:1016F0004FF00300F4D9DEE720F001003067306FCF
:10170000002920F0040030677AD0FFF74BFB054634
:1017100041F28837306F800700F18480FFF742FB89
:10172000401BB842F6D9032002B0BDE8F08100BFEB
:1017300020F4803030603068002920F48020306050
:101740007AD0FFF72FFB0546306880033FF5CAAE1D
:10175000FFF728FB401B6428F6D9032002B0BDE840
:10176000F08100BF7068E16900F480028A4221D1F3
:10177000216A00F03F028A421CD147F6C071626ABA
:101780000140B1EB821F15D1A16A4FF6FF73C90367
:10179000994300F44032A1F580318A420AD1E16ACE
:1017A00000F07060B0EB016F04D1002002B0BDE822
:1017B000F08100BF012002B0BDE8F08104F11C05FA
:1017C0002FCD084340EA8210D9034FF6FF729143B0
:1017D000A1F5803140EA0560084370600120386659
:1017E000FFF7E0FA044600BF30688001DDD4FFF760
:1017F000D9FA001B02284FF00300F5D95BE700BFC0
:10180000FFF7D0FA054641F2883700BF306F8007F6
:1018100008D5FFF7C7FA401BB8424FF00300F5D9CF
:1018200049E700BFB8F1000F3FF581AE306C20F002
:10183000805030647BE600BFFFF7B4FA054600BF76
:10184000306880037FF54EAEFFF7ACFA401B64288A
:101850004FF00300F4D92EE7411E0020B0EB116FCA
:101860001CBF012070474EF21002CEF20002516000
:101870004EF62351CEF20001F0230B700721906049
:1018800011607047FEE7000070B50368044653F826
:10189000140F400711D40E46481C29D086BB00BF48
:1018A0001868400527D4FFF77DFA236853F8140F12
:1018B000400737D518684007F2D5002070BD00BF3B
:1018C00018684007F9D41868400514D41868400710
:1018D000F3D4186840050ED418684007EDD4186892
:1018E000400508D4186840074FF0000048BF70BD9D
:1018F00018684005E4D56FF480601860042012E099
:10190000154603E053F8140F4007D6D41868400575
:10191000F1D4FFF747FA401B2368B042F2D9586967
:101920004007EFD4202000212022216384F83D20AD
:1019300084F83E10226C10432064012084F83C108F
:1019400070BD00002DE9F041054600681E461446B2
:1019500001F47F0201338FB242D0DDF81880B2F576
:10196000803F40F0878040693840C01BB0FA80F06B
:101970004009A04240F0C8804EB924E04069384098
:10198000C01BB0FA80F04009A04240F0BD80FFF7D4
:1019900009FAA0EB08012868B142EFD94169394042
:1019A000C91BB1FA81F14909A142E7D19BE000BF0F
:1019B00040693840C01BB0FA80F04009A0424FF0A7
:1019C000000040F0A280FFF7EDF928684169394036
:1019D000C91BB1FA81F14909A142E9D183E000BFF5
:1019E000B2F5803F24D100BF41693940C91BB1FA2B
:1019F00081F14909A14240F0878041693940C91B02
:101A0000B1FA81F14909A14240F07E804169394033
:101A1000C91BB1FA81F14909A14275D14169394027
:101A2000C91BB1FA81F14909A142DDD06CE000BFC8
:101A300081693940C91BB1FA81F14909A14263D1D9
:101A400081693940C91BB1FA81F14909A1425BD1D1
:101A500081693940C91BB1FA81F14909A14253D1C9
:101A600081693940C91BB1FA81F14909A142DFD02E
:101A70004AE000BF80693840C01BB0FA80F04009DE
:101A8000A04241D146B923E080693840C01BB0FA7A
:101A900080F04009A04237D1FFF784F9A0EB08019C
:101AA0002868B142F0D981693940C91BB1FA81F186
:101AB0004909A142E8D116E080693840C01BB0FA5C
:101AC00080F04009A0424FF0000018BFBDE8F0814F
:101AD000FFF768F9286881693940C91BB1FA81F1BB
:101AE0004909A142E8D100202021286385F83D1052
:101AF00085F83E00296C41F02001296485F83C00FE
:101B00000120BDE8F08100BF0020BDE8F0810000A9
:101B1000F0B581B0044600681D4643698FB203EA00
:101B20000701B94202D1002001B0F0BD416916465B
:101B300001323CD0490512D47EB300BFFFF732F921
:101B4000411B2068B14203D941693940B9422BD1C8
:101B500041693940B942E6D041694905EED501688D
:101B600041F4007101606FF4806141610420002143
:101B70002022216384F83D2084F83E10226C10431B
:101B8000206484F83C10012001B0F0BD4169394067
:101B9000B942C8D041694905E1D4FFF703F920688B
:101BA00041693940B942F1D02020E0E74169490557
:101BB000D5D441693940B942B5D041694905CED43F
:101BC00041693940B942AED041694905C7D441693C
:101BD0003940B942A7D041694905C0D4416939406B
:101BE000B942E3D19FE7000070B50368044653F89B
:101BF000140F000611D40E46481C29D086BB00BF26
:101C00001868400527D4FFF7CDF8236853F8140F60
:101C1000000637D518680006F2D5002070BD00BF59
:101C200018680006F9D41868400514D4186800062E
:101C3000F3D4186840050ED418680006EDD418686F
:101C4000400508D4186800064FF0000048BF70BD7A
:101C500018684005E4D56FF480601860042012E035
:101C6000154603E053F8140F0006D6D41868400553
:101C7000F1D4FFF797F8401B2368B042F2D95869B6
:101C80000006EFD4202000212022216384F83D208B
:101C900084F83E10226C10432064012084F83C102C
:101CA00070BD0000B0B582B0082040F2B8048DF8D5
:101CB00005000C20C2F200048DF804000A2501AAD8
:101CC00020464E2101230095FFF724F90DF105026E
:101CD00020464E2101230095FFF71CF918208DF8AE
:101CE00007001C208DF806000DF1060220464E214B
:101CF00001230095FFF70EF90DF1070220464E2152
:101D000001230095FFF706F90220FEF761FF02B0FC
:101D1000B0BD00002DE9F04383B03220FEF758FF3C
:101D200040F2B804C2F2000438263C270A250DF11F
:101D30000A0220464E2101238DF80B608DF80A70AF
:101D40000095FFF7E7F80DF10B0220464E21012325
:101D50000095FFF7DFF80520FEF73AFF0DF10A02C4
:101D600020464E2101238DF80B608DF80A700095F6
:101D7000FFF7D0F80DF10B0220464E21012300950C
:101D8000FFF7C8F80120FEF723FF0DF10A022046F5
:101D90004E2101238DF80B608DF80A700095FFF736
:101DA000B9F80DF10B0220464E2101230095FFF7F3
:101DB000B1F828262C270DF10A0220464E210123D6
:101DC0008DF80B608DF80A700095FFF7A3F80DF100
:101DD0000B0220464E2101230095FFF79BF80DF1E1
:101DE0000A0220464E2101238DF80B608DF80A70FF
:101DF0000095FFF78FF80DF10B0220464E210123CD
:101E00000095FFF787F888268C270DF10A022046F7
:101E10004E2101238DF80B608DF80A700095FFF7B5
:101E200079F80DF10B0220464E2101230095FFF7B2
:101E300071F84FF008084FF00C090DF10A02204626
:101E40004E2101238DF80B808DF80A900095FFF745
:101E500061F80DF10B0220464E2101230095FFF79A
:101E600059F80DF10A0220464E2101238DF80B602E
:101E70008DF80A700095FFF74DF80DF10B02204622
:101E80004E2101230095FFF745F80DF10A02204687
:101E90004E2101238DF80B808DF80A900095FFF7F5
:101EA00039F80DF10B0220464E2101230095FFF772
:101EB00031F818208DF80B001C208DF80A000DF168
:101EC0000A0220464E2101230095FFF723F80DF169
:101ED0000B0220464E2101230095FFF71BF802203C
:101EE000FEF776FE0DF10A0220464E2101238DF801
:101EF0000B808DF80A900095FFF70CF80DF10B029E
:101F000020464E2101230095FFF704F868208DF844
:101F10000B006C208DF80A000DF10A0220464E21BC
:101F200001230095FEF7F6FF0DF10B0220464E212E
:101F300001230095FEF7EEFF0DF10A0220464E2127
:101F400001238DF80B808DF80A900095FEF7E2FFD3
:101F50000DF10B0220464E2101230095FEF7DAFF1A
:101F6000C8208DF80B00CC208DF80A000DF10A0274
:101F700020464E2101230095FEF7CCFF0DF10B0208
:101F800020464E2101230095FEF7C4FF03B0BDE8B3
:101F9000F08300002DE9F04F83B00578002D3ED08E
:101FA00040F2B804461E0A27C2F200040DF10808E8
:101FB0000DF109090DF10A0A0DF10B0B25F00F00C7
:101FC00000F109010D308DF809108DF80800204648
:101FD0004E21424601230097FEF79CFF20464E21EA
:101FE0004A4601230097FEF795FF280100F10901F9
:101FF0000D308DF80B108DF80A0020464E21524608
:1020000001230097FEF786FF20464E215A46012302
:102010000097FEF77FFFB5780136002DCED103B0D3
:10202000BDE8F08F10B584B06C46034604A220468C
:102030001021FEF7B3F92046FFF7ACFF04B010BD46
:102040002564000070B582B00D466FF03F01002896
:1020500008BF6FF07F01481920F00F0040F2B8046C
:1020600000F108010C30C2F200048DF805108DF863
:1020700004000A2601AA20464E2101230096FEF7FD
:1020800049FF0DF1050220464E2101230096FEF77F
:1020900041FF280100F108010C308DF807108DF880
:1020A00006000DF1060220464E2101230096FEF7A0
:1020B00031FF0DF1070220464E2101230096FEF765
:1020C00029FF02B070BD0000FEE70000FEE700003F
:1020D0007047000040F20040C4F2020002210122D9
:1020E000FEF75ABE40F20040C4F202000221002274
:1020F000FEF752BE7047000010B540F27004C2F205
:1021000000042046FEF7DCFC20464FF0FF31FEF7CE
:1021100057FC2046BDE81040FEF76ABBFFF722B827
:1021200070B592B006AC20463021FEF7C7F9002505
:1021300043F640000595CDE90355CDE901550095DD
:10214000C4F202000168022641F08051016000687B
:1021500000F080500090009847F200000095C4F213
:102160000000016841F440410160006800F4404013
:10217000009000980120099010200A900E90C02035
:10218000CDE90F060420119020460696CDE90C6596
:10219000FFF78CF910B172B6FEE700BF0F20CDE952
:1021A00001064FF48050CDE9040501A803210395F1
:1021B000FFF780F810B172B6FEE700BF12B070BD35
:1021C0004EF68850CEF20000016841F470010160C3
:1021D00070470000FEE7000040F20040C4F2020039
:1021E00001210022FEF7D8BD40F20040C4F20200F7
:1021F00001210122FEF7D0BD10B5FFF77DFF044697
:1022000000200021FFF71EFF1AA0FFF7C3FE2046A3
:10221000FFF708FFFFF75EFF20097C281ED801208A
:102220000021FFF70FFF19A0FFF7B4FE40F6B8300A
:10223000FEF7CEFCFFF760FF40F6FD01884208D3B1
:10224000FFF7CAFF01200021FFF7FCFE12A0FFF7F5
:10225000A1FEBDE81040FFF745BF00BFFFF7C4FF78
:1022600001200021FFF7EEFE04A0BDE81040FFF7BB
:1022700091BE00BF536F696C3A200000536F696CC8
:10228000204F4B20202020202020200050756D70F2
:10229000204F4E2E2E2E000056616C766520434C4A
:1022A0004F5345442100000086B040F20044C4F280
:1022B0000204FEF765FFFFF733FF002543F6300009
:1022C0000595CDE90355CDE901550095C4F202000D
:1022D0000168002241F0010101600168072601F058
:1022E0000101009100990095016841F0020101602F
:1022F0000068072100F00200009000982046FEF7D9
:102300004BFD0196012601A92046CDE90265049501
:10231000FEF772FC40F270000123A4F56441C2F2A2
:102320000000C0F6007304954FF48032057680F803
:102330002050C0E90A35C66180F8305080E8260098
:10234000C0E903554661FEF757FA18B172B600BFEF
:10235000FEE700BF40F27000C2F2000001A9CDE923
:1023600001560395FEF78CF910B172B6FEE700BF77
:1023700040F2B800A4F5D831C2F2000048F2A062E1
:1023800000234FF48046C0F2010280E80E00C0E94D
:102390000336C0E90533C0E90733FEF709FD18B17C
:1023A00072B600BFFEE700BFFFF7B4FCFFF77AFC90
:1023B00000200021FFF746FE07A0FFF7EBFD4FF4DA
:1023C0007A70FEF705FC00BFFFF716FF4FF4FA70B6
:1023D000FEF7FEFBF8E700BF53797374656D20527A
:1023E0006561647900000000F1EE100A4FF6FF719C
:1023F000C0F2C03120EA010040F04070E1EE100A66
:1024000070470000000000000000010203040607FE
:102410000809000000000102030400004024000835
:102420000000002010000000FC01000850240008FB
:1024300010000020000700001C020008000000003F
:1024400001000000100000000024F4000000000063
:040000050800019955
:00000001FF
